:020000040800F2
:100000004004002001010008090100080B0100085C
:100010000D0100080F010008110100080000000098
:1000200000000000000000000000000013010008B4
:100030001501000800000000170100081901000860
:100040001B0100081B0100081B0100081B01000820
:100050001B0100081B0100081B0100081B01000810
:100060001B0100081B0100081B0100081B01000800
:100070001B0100081B0100081B0100081B010008F0
:100080001B0100081B0100081B0100081B010008E0
:100090001B0100081B0100081B0100089507000850
:1000A0001B0100081B0100081B0100081B010008C0
:1000B0001B0100081B0100081B0100081B010008B0
:1000C0001B0100081B0100081B0100081B010008A0
:1000D0001B0100081B0100081B0100081B01000890
:1000E0001B0100081B0100081B010008DFF80CD0F1
:1000F00000F018FA004800471518000840040020D6
:100100000648804706480047FEE7FEE7FEE7FEE7B1
:10011000FEE7FEE7FEE7FEE7FEE7FEE7AD170008B5
:10012000ED00000830B50B460146002020220124D6
:1001300009E021FA02F59D4205D303FA02F5491BB5
:1001400004FA02F52844151EA2F10102F1DC30BDCB
:100150002DE9F05F0546002092469B4688460646FC
:10016000814640241BE0284641464746224600F08F
:10017000FAF953465A46C01A914110D3114618460F
:10018000224600F0E1F92D1A67EB01084F4622469E
:100190000120002100F0D8F917EB00094E41201E84
:1001A000A4F10104DFDC484631462A464346BDE857
:1001B000F09F2DE9FE4F804681EA0300C00F0C46F8
:1001C000009021F0004123F00045B8EB0200A94166
:1001D00005D24046214690461C460B46024623F077
:1001E0000040104347D0270DC7F30A00C3F30A515C
:1001F0000290401A019040286BDAC3F3130040F4D8
:10020000801B0098924620B10023D2EB030A63EBD7
:100210000B0B01985946C0F14002504600F094F98A
:1002200006460D4650465946019A00F0ACF910EBCF
:1002300008006141002487EA115284EAE7731A43F7
:1002400040D0009A62B3019A012A4FEA075215DCA6
:10025000001B61EB02014FF0004202EA0752CDE9B8
:100260000042001C41F5801132462B4600F0ACF9EB
:1002700003B0BDE8F08F40462146F9E7001B61EB73
:100280000201001C41F5801300185B412018A2F503
:10029000001747EB030140EAD570B6196D4111E034
:1002A0006D084FEA360645EAC0754FEA0752001B53
:1002B00061EB0201001C41F5801149084FEA300052
:1002C0000019514132462B4603B0BDE8F04F00F013
:1002D0006CB90098012240000023D0EB020263EBCE
:1002E000E073009821464FEAE074B8EB000061EB40
:1002F0000401E9E783F000435BE781F0004158E740
:100300002DE9FE4F81EA030404F0004421F000418E
:1003100000944FF0000B23F0004350EA01045ED03C
:1003200052EA03045BD0C3F30A54C1F30A552C44C8
:10033000A4F2F3340194A0FB0254C1F3130141F47D
:100340008011C3F3130343F4801301FB024400FB49
:10035000034E840A970A44EA815447EA8357A4FB70
:10036000076802958D0A05FB07854FEA932C04FB6D
:100370000C542705029D4FEA065847EA1637B5EB9D
:1003800008056EEB070C870E920E47EA811742EACA
:100390008312A7FB0201B6EB0B0164EB00042B0DEB
:1003A00043EA0C335E1844EB1C50DA465146E7FB37
:1003B0000201C5F313044FEA0B3343EA14534FEA27
:1003C0000432019C43EA0603A4F10C040294009C4D
:1003D000CDE900B400F0F8F803B0BDE8F08F0020DC
:1003E0000146F9E72DE9F04D81EA030404F0004BE2
:1003F00021F0004514464FF0000A23F0004150EA76
:10040000050220D054EA01021DD0C5F30A57024666
:10041000C5F31303C1F31300C1F30A5640F480156A
:1004200043F48013A7EB0608101BD64608F2FD38EC
:1004300073EB050002D308F1010801E092185B415B
:10044000B8F1000F03DA00200146BDE8F08D00206E
:100450004FF48011064684460EE0171B73EB050728
:1004600005D3121B63EB050306434CEA010C490854
:100470004FEA300092185B4150EA0107EDD152EA91
:10048000030012D082EA040083EA0501084305D084
:10049000101BAB4106D20122002306E000224FF0E0
:1004A000004302E06FF0010253101AEB06004CEB20
:1004B000085110EB0A0041EB0B01BDE8F04D00F0D4
:1004C00074B8C1F30A52C1F3130140F2FF3341F48F
:1004D00080119A4202DA00200146704740F233430D
:1004E0009A42A2F2334202DC524200F03CB800F0E1
:1004F0002BB8000030B5041E71F1000404DB4FF08E
:100500000044404264EB0101141E73F1000405DB5A
:100510001C464FF00043524263EB0403994208BF6C
:10052000904230BD064C074D06E0E06840F0010304
:1005300094E8070098471034AC42F6D3FFF7DAFD91
:10054000C0220008E0220008202A04DB203A00FA3A
:1005500002F1002070479140C2F1200320FA03F31A
:10056000194390407047202A04DB203A21FA02F018
:100570000021704721FA02F3D040C2F120029140DD
:10058000084319467047202A06DBCB17203A41FA68
:1005900002F043EAE07306E041FA02F3D040C2F110
:1005A0002002914008431946704710B5141E73F19C
:1005B000000408DA401C41F1000192185B411A4323
:1005C00001D120F0010010BD2DE9F04D92469B466F
:1005D00011B1B1FA81F202E0B0FA80F22032904615
:1005E000FFF7B2FF04460F4640EA0A0041EA0B015A
:1005F00053465A46084313D0114653EA010019D016
:10060000C8F140025046FFF7AEFF05460E46504681
:1006100059464246FFF798FF084305D0012004E001
:1006200020463946BDE8F08D0020054346EAE076D5
:100630002C4337430A986305E40AA0EB0800002224
:10064000FD0A44EA47540A3002D500200146E9E792
:10065000010510196941DDE9084500196941BDE846
:10066000F04DA2E780B582B0019040F22C00C2F2BA
:1006700000000068A8B9FFE740F23000C2F20000B5
:10068000006870B9FFE740F23400C2F20000006871
:1006900038B9FFE740F22801C2F2000100200860EB
:1006A000FFE701200090FFE70098019901EB81012D
:1006B00088426DD8FFE70021084600F05DFE40F259
:1006C0002800C2F200000068012100F007FE40F29D
:1006D0003800C2F20000006840F22401C2F20001BA
:1006E0000968884228D0FFE740F22C00C2F20000DF
:1006F000006870B9FFE740F23000C2F20000006805
:1007000038B9FFE740F23400C2F20000006898B147
:10071000FFE740F22800C2F2000000680B280BD36C
:10072000FFE70021084600F027FE42F2B820C0F69D
:10073000000000F00FFE2BE040F22000C2F20000AB
:100740000068B0F5226F07D1FFE740F22801C2F23E
:10075000000100200860FFE7009847F69161C3F6AA
:10076000FB2148434FEAF00041F67131C0F20D0120
:10077000884208D8FFE740F22801C2F20001086869
:1007800001300860FFE7FFE70098013000908BE739
:1007900002B080BD80B5052000F07AF8062000F098
:1007A00077F8072000F074F840F60800C4F2010062
:1007B0000068C0F3421040F23801C2F20001086044
:1007C00080BD000081B08DF803008DF802109DF807
:1007D000020001282DD1FFE79DF803001F280DDC42
:1007E000FFE79DF80310012000FA01F24EF200111C
:1007F000CEF2000108681043086019E09DF803007C
:10080000202814DBFFE79DF8030040280FDCFFE7FA
:100810009DF8030000F01F01012000FA01F24EF2E2
:100820000411CEF20001086810430860FFE7FFE7FB
:100830002CE09DF803001F280DDCFFE79DF8031056
:10084000012000FA01F24EF28011CEF20001086898
:100850001043086019E09DF80300202814DBFFE72F
:100860009DF8030040280FDCFFE79DF8030000F02F
:100870001F01012000FA01F24EF28411CEF20001B4
:10088000086810430860FFE7FFE7FFE701B0704723
:1008900081B08DF8030040F21440C4F201000068FA
:1008A0009DF80310C840C00768B1FFE79DF803102A
:1008B000012000FA01F240F21441C4F2010108687B
:1008C00010430860FFE701B07047000083B08DF867
:1008D0000B0001919DF80B0080088DF803009DF836
:1008E0000B0000F003008DF802009DF80200C0002C
:1008F00004308DF8010001989DF8011000FA01F311
:100900009DF803204EF20041CEF2000151F8220082
:10091000184341F8220003B07047000088B00790E8
:1009200007984068C00805900798406800F00700E5
:1009300004900798806802282CD1FFE70798007B75
:100940000499890088400690059888B9FFE70498C3
:1009500081000F2000FA01F20798016808689043AF
:100960000860069A0798016808681043086010E05C
:10097000049881000F2000FA01F207980168486886
:1009800090434860069A0798016848681043486099
:10099000FFE709E30798806803282DD1FFE7079850
:1009A000007B04300499890088400690059888B936
:1009B000FFE7049881000F2000FA01F20798016810
:1009C000086890430860069A079801680868104311
:1009D000086010E0049881000F2000FA01F20798E7
:1009E0000168486890434860069A0798016848681B
:1009F00010434860FFE7D6E20798806804282DD1AD
:100A0000FFE70798007B083004998900884006902A
:100A1000059888B9FFE7049881000F2000FA01F2D9
:100A200007980168086890430860069A079801686B
:100A300008681043086010E0049881000F2000FA55
:100A400001F207980168486890434860069A079841
:100A50000168486810434860FFE7A3E20798806890
:100A600005282DD1FFE70798007B0C3004998900F9
:100A700088400690059888B9FFE7049881000F2008
:100A800000FA01F207980168086890430860069A26
:100A90000798016808681043086010E00498810016
:100AA0000F2000FA01F207980168486890434860F7
:100AB000069A07980168486810434860FFE770E2AB
:100AC00007988068012806D0FFE70798806801280A
:100AD00040F0A780FFE70798407B58BBFFE70498EA
:100AE0008100042088400690059888B9FFE70498A3
:100AF00081000F2000FA01F207980168086890430E
:100B00000860069A0798016808681043086010E0BA
:100B1000049881000F2000FA01F2079801684868E4
:100B200090434860069A07980168486810434860F7
:100B3000FFE775E00798407B012834D1FFE7049870
:100B40008100082088400690059888B9FFE704983E
:100B500081000F2000FA01F20798016808689043AD
:100B60000860069A0798016808681043086010E05A
:100B7000049881000F2000FA01F207980168486884
:100B800090434860069A0798016848681043486097
:100B9000FFE7079801684268012000FA02F208693D
:100BA000104308613BE00798407B022836D1FFE7FD
:100BB00004988100082088400690059888B9FFE7CE
:100BC000049881000F2000FA01F207980168086874
:100BD00090430860069A0798016808681043086007
:100BE00010E0049881000F2000FA01F207980168D4
:100BF000486890434860069A07980168486810431F
:100C00004860FFE707980168406800F11002012082
:100C100000FA02F2086910430861FFE7FFE7FFE707
:100C2000BEE10798806808280BD0FFE70798806826
:100C3000092806D0FFE707988068072840F0A681BA
:100C4000FFE707988068082818D1FFE707984168F0
:100C5000012000FA01F340F20C42C4F201021168D3
:100C6000194311600799496800FA01F240F20841FE
:100C7000C4F201010868904308603BE0079880686F
:100C8000072818D1FFE707984168012000FA01F30F
:100C900040F20C42C4F201021168994311600799B5
:100CA000496800FA01F240F20841C4F20101086803
:100CB000104308601DE007988068092818D1FFE7F5
:100CC00007984168012000FA01F340F20C42C4F297
:100CD00001021168194311600799496800FA01F28D
:100CE00040F20841C4F20101086810430860FFE7C0
:100CF000FFE7FFE70798406880088DF80F00079826
:100D0000406800F003008DF80E000798006840F678
:100D10000001C4F20101884203D1FFE700200290E4
:100D200029E00798006840F60041C4F201018842BA
:100D300003D1FFE7012001901AE00798006841F213
:100D40000001C4F20101884203D1FFE702200090B4
:100D50000BE00798016841F20042C4F20102002052
:100D6000914208BF03200090FFE700980190FFE741
:100D700001980290FFE702988DF80D0041F21801EA
:100D8000C4F20201086840F0010008609DF80F00FD
:100D900070B9FFE79DF80D009DF80E10890000FA6C
:100DA00001F20821C4F201010868104308603BE029
:100DB0009DF80F0001280ED1FFE79DF80D009DF86A
:100DC0000E10890000FA01F20C21C4F2010108683A
:100DD0001043086027E09DF80F0002280ED1FFE7BE
:100DE0009DF80D009DF80E10890000FA01F2102107
:100DF000C4F2010108681043086013E09DF80F0079
:100E000003280ED1FFE79DF80D009DF80E10890014
:100E100000FA01F21421C4F20101086810430860CD
:100E2000FFE7FFE7FFE7FFE707984168012000FAC7
:100E300001F240F20041C4F2010108681043086069
:100E40000798407B58BBFFE7049881000420884046
:100E50000690059888B9FFE7049881000F2000FAF2
:100E600001F207980168086890430860069A07989D
:100E7000016808681043086010E0049881000F20A2
:100E800000FA01F207980168486890434860069AA2
:100E900007980168486810434860FFE775E00798C5
:100EA000407B012834D1FFE7049881000820884066
:100EB0000690059888B9FFE7049881000F2000FA92
:100EC00001F207980168086890430860069A07983D
:100ED000016808681043086010E0049881000F2042
:100EE00000FA01F207980168486890434860069A42
:100EF00007980168486810434860FFE70798016851
:100F00004268012000FA02F20869104308613BE0E0
:100F10000798407B022836D1FFE70498810008201B
:100F200088400690059888B9FFE7049881000F2053
:100F300000FA01F207980168086890430860069A71
:100F40000798016808681043086010E00498810061
:100F50000F2000FA01F20798016848689043486042
:100F6000069A07980168486810434860FFE70798A9
:100F70000168406800F11002012000FA02F20869DD
:100F800010430861FFE7FFE7FFE708E00798806884
:100F9000062803D1FFE700200690FFE7FFE7FFE701
:100FA000FFE7FFE7FFE7FFE708B0704782B0019077
:100FB0008DF803109DF80300012848D1FFE7019840
:100FC00040F60001C4F20101884209D1FFE741F275
:100FD0001801C4F20201086840F00400086035E01E
:100FE000019840F60041C4F20101884209D1FFE7AF
:100FF00041F21801C4F20201086840F008000860DC
:1010000023E0019841F20001C4F20101884209D1B4
:10101000FFE741F21801C4F20201086840F0100035
:10102000086011E0019841F20041C4F201018842D8
:1010300009D1FFE741F21801C4F20201086840F04B
:1010400020000860FFE7FFE7FFE7FFE747E00198C0
:1010500040F60001C4F20101884209D1FFE741F2E4
:101060001801C4F20201086820F00400086035E0AD
:10107000019840F60041C4F20101884209D1FFE71E
:1010800041F21801C4F20201086820F0080008606B
:1010900023E0019841F20001C4F20101884209D124
:1010A000FFE741F21801C4F20201086820F01000C5
:1010B000086011E0019841F20041C4F20101884248
:1010C00009D1FFE741F21801C4F20201086820F0DB
:1010D00020000860FFE7FFE7FFE7FFE7FFE702B058
:1010E0007047000080B582B040F60040C4F20100B5
:1010F00000900C2100F042FA00980D2100F03EFA19
:1011000000980E2100F03AFA00980F2100F036FA0C
:1011100040F60000C4F201000190002100F02EFA18
:101120000198012100F02AFA0198022100F026FA24
:101130000198032100F022FA01980A2100F01EFA1A
:101140000198042100F01AFA01980B2100F016FA18
:1011500002B080BD80B5FFF7C5FF0C2000F0AAF8F3
:10116000382000F0A7F8062000F0A4F8802000F056
:10117000A1F800F069F880BD80B586B08DF8170041
:101180000A20049000F0D0F99DF8170000F0010249
:1011900040F60040C4F2010001900C2100F0D6F9A5
:1011A00001989DF8171001F002020D2100F0CEF910
:1011B00001989DF8171001F004020E2100F0C6F905
:1011C00001989DF8171001F008020F2100F0BEF9F8
:1011D0009DF8170000F0100240F60000C4F2010074
:1011E00002900021039100F0B1F902989DF81710C8
:1011F00001F02002012100F0A9F902989DF81710D2
:1012000001F04002022100F0A1F902989DF81710A8
:1012100001F08002032100F099F93C2000F084F9EC
:101220000298039A0B2100F091F9049800F07CF9E0
:1012300006B080BD80B540F60000C4F20100042174
:10124000012200F083F980BD80B5012000F032F862
:10125000642000F069F980BD80B540F60000C4F25A
:1012600001000421002200F071F980BD80B582B038
:101270000120019000F058F9019A40F60000C4F2F4
:1012800001000B2100F062F902B080BD80B582B090
:101290008DF8070000F088F8FFF7CCFFFFF7E6FFB6
:1012A0009DF80700FFF768FFC82000F03DF902B085
:1012B00080BD000080B582B08DF8070000F074F8A2
:1012C000FFF7CAFFFFF7D2FF9DF80700FFF754FFB3
:1012D000012000F029F902B080BD0000D0B502AFB6
:1012E00086B047F80C0C07F80D1C17F80D0C694672
:1012F00047F8141CC11D21F007026946891A8D4662
:1013000047F81C1C47F8180C57F80C0C0A280BD38C
:10131000FFE757F81C0C57F80C2C42F2BC21C0F622
:10132000000100F0DFFA0AE057F81C0C57F80C2C0B
:1013300042F2BB21C0F6000100F0D4FAFFE757F8F3
:101340001C0C00F007F857F8140C8546A7F10804A8
:10135000A546D0BD80B582B00190FFE70198007826
:1013600038B1FFE70198411C01910078FFF78EFF2B
:10137000F4E702B080BD000080B582B0019000911A
:10138000019810280DDCFFE70098012809DCFFE731
:101390000198009900EB81108030C0B2FFF78AFFFE
:1013A000FFE702B080BD000080B540F60000C4F247
:1013B00001000A21002200F0C9F880BD80B594B078
:1013C00040F60040C4F20100019001210A91FFF7AC
:1013D000EDFD0A9940F60000C4F201000390FFF70A
:1013E000E5FD0198109000201190022007901290C6
:1013F0008DF84D00032008908DF84C0010A8029045
:10140000FFF78CFA0298079A08990A9B1193129297
:101410008DF84D208DF84C10FFF780FA0298079A4E
:10142000089905230493119312928DF84D208DF89D
:101430004C10FFF773FA0298079A08990623059350
:10144000119312928DF84D208DF84C10FFF766FA2B
:101450000298079A08990823119312928DF84D204B
:101460008DF84C10FFF75AFA0298079A0899092349
:101470000693119312928DF84D208DF84C10FFF7C2
:101480004DFA0298079A08990A23119312928DF83F
:101490004D208DF84C10FFF741FA0298079A0899F1
:1014A0000B23119312928DF84D208DF84C10FFF7FD
:1014B00035FADDF80CC0049B069A07990898CDF818
:1014C00030C00D930E928DF83D108DF83C000CA8A5
:1014D0000990FFF723FADDF814C0069B079A0899D4
:1014E0000998CDF834C00E938DF83D208DF83C104E
:1014F000FFF714FA069B079A089909984FF0070C12
:10150000CDF834C00E938DF83D208DF83C10FFF7D8
:1015100005FA0A9917200B90FFF754F90B980F2141
:10152000FFF7D4F914B080BD82B001900020009084
:10153000FFE700980199884205DAFFE7FFE7009886
:1015400001300090F5E702B07047000083B00290D0
:1015500001918DF803209DF8030030B1FFE7019958
:10156000012088400299086105E001990120884026
:1015700002994861FFE703B07047000082B0019014
:101580000091019840F60001C4F20101884209D19E
:10159000FFE741F21801C4F20201086840F00400BC
:1015A0000860FFE7019840F60041C4F2010188425B
:1015B00009D1FFE741F21801C4F20201086840F0C6
:1015C00008000860FFE7019841F20001C4F2010140
:1015D000884209D1FFE741F21801C4F2020108680C
:1015E00040F010000860FFE70098092823DBFFE7C0
:1015F000009940F20000C2F2000030F811300121E1
:1016000001FA03F2013301FA03F342EA030C019BEE
:101610005A6842EA0C025A60009A30F81220901C74
:1016200001FA00F00332914040EA01020199486852
:101630009043486022E0009940F20000C2F20000AE
:1016400030F81130012101FA03F2013301FA03F3FA
:1016500042EA030C019B1A6842EA0C021A60009AE3
:1016600030F81220901C01FA00F00332914040EA59
:1016700001020199086890430860FFE702B07047D3
:1016800080B500F001F880BD84B000200390029086
:1016900041F20001C4F20201086840F480300860A1
:1016A000FFE741F20000C4F20200006800F40030DD
:1016B0000290039801300390FFE702990020019007
:1016C00039B9FFE70398B0F5A06018BF0120019079
:1016D000FFE70198C0070028E3D1FFE741F20000CF
:1016E000C4F2020000688003002803D5FFE7012050
:1016F000029002E000200290FFE70298012851D1F9
:10170000FFE742F20001C4F20201086840F0100055
:101710000860086820F007000860086840F00200D0
:10172000086041F20401C4F20201009108680860F7
:1017300008680860086840F480600860086820F461
:101740007C100860086840F4E810086041F200016D
:10175000C4F20201086840F080700860FFE741F2BF
:101760000000C4F2020000688001002801D4FFE7F5
:10177000F5E741F20401C4F20201086820F0030019
:101780000860086840F002000860FFE741F20400CA
:10179000C4F20200006800F00C00082801D0FFE746
:1017A000F4E700E0FFE704B07047000080B541F2C5
:1017B0000002C4F20202106840F00100106041F221
:1017C0000401C4F2020108680023CFF6FF031840A9
:1017D000086010684FF6FF73CFF6F663184010608C
:1017E000106820F480201060086820F4FE00086073
:1017F00041F20801C4F202014FF41F000860FFF734
:101800003FFF4EF60851CEF200014FF00060086035
:1018100080BD000080B586B0002003900590FFF7E2
:10182000CDFD0C208DF81300FFF794FC03990846BA
:10183000FFF7A2FDFFE79DF81300010142F2E81057
:10184000C0F600000190415840F22002C2F20002AE
:1018500011609DF813100901415801F0010140F297
:101860002C02C2F2000211609DF8131009014158C8
:10187000C1F3801140F23402C2F2000211609DF8FF
:10188000131009014158C1F3802140F23002C2F225
:101890000002116040F23801C2F2000102910968B1
:1018A00040F22402C2F2000211609DF813100901F7
:1018B000415840F60C42C4F2010211609DF8131029
:1018C00000EB01104068FEF7CDFE019802999DF8EB
:1018D000132000EB021009680844007A8DF8130009
:1018E000A9E700000FB4084B10B504A902AA039899
:1018F00000F0DEF8044602A9002000F070FC20464B
:1019000010BC5DF814FB0000DF21000802E008C8ED
:10191000121F08C1002AFAD170477047002001E069
:1019200001C1121F002AFBD1704700002DE9FF5FA3
:1019300082B00021DDE90430020DDDF840B0034340
:1019400018D044F61050A2F2FF32424315141198F9
:1019500001281FD0A5EB0B00401C5FEA000A4FF0E6
:1019600000064E4FDFF83891B046504615D5CAF103
:10197000000413E0119801244AA3012801D16FEA61
:101980000B010298119AC0E90031C0E9024206B089
:10199000BDE8F09FCBF10000DFE704460021404A9C
:1019A000491842EB0450CDE9001012E0E00707D0DF
:1019B00032463B4640464946FEF7A2FC80468946F1
:1019C00032463B4610461946FEF79AFC06460F463D
:1019D0006410002CEAD1DDE90401DDE90023BAF14D
:1019E000000F06DAFEF78CFC42464B46FEF788FCF9
:1019F00005E0FEF7F7FC42464B46FEF7F3FC0446D3
:101A00000E460022284BFEF775FD03D84FF0FF303D
:101A1000014607E00022254B20463146FEF7C9FB70
:101A2000FEF74FFD102409E0002C0ADB0A220023F8
:101A3000FEF78EFB039B30321A55641E50EA0102FA
:101A4000F2D1641C039AC4F111031444119A012ABF
:101A500003D0012208430DD10AE0084304D000203E
:101A60004FF0110B119072E7A3EB0B056D1E0DE00B
:101A70005B4504DD4FF0000205F1010504E003DAE7
:101A80004FF00002A5F10105002AECD0029811994F
:101A9000C0E90231C0E9004579E7000000001440C8
:101AA0000000F03F300000000000F0430000E03F85
:101AB0002DE9FF4F95B09B468946064600250FE26B
:101AC000252877D100242746F84A0121059400E013
:101AD000044316F8013F203B01FA03F01042F7D10E
:101AE00030782A2811D06FF02F033078A0F130021F
:101AF000092A16D8059A44F0020402EB820203EB8D
:101B000042021044761C0590EFE759F8042B059229
:101B1000002A03DA504244F40054059044F00204D1
:101B2000761C30782E2816D116F8010F44F00404E4
:101B30002A280DD06FF02F023078A0F13003092B46
:101B400009D807EB870302EB4303C718761CF3E7BA
:101B500059F8047B761C30786C280FD006DC4C28B2
:101B600017D068280DD06A2814D104E0742810D04A
:101B70007A280FD10DE044F400140AE044F48014F4
:101B800001E044F440147278824202D104F58014DA
:101B9000761C761C307866280BD013DC582877D05A
:101BA00009DC002875D04528F6D04628F4D047280F
:101BB0001AD19DE118E0632835D0642879D06528D2
:101BC00012D195E1702873D008DC6728F1D069281C
:101BD0006FD06E280DD06F2806D1B5E073282CD0B9
:101BE000752875D0782874D05A46179990476D1C7F
:101BF00075E1C4F30250022809D003280DD0D9F8AA
:101C0000001004280DD00D6009F1040967E1D9F82E
:101C10000010EA17C1E90052F6E7D9F800100D806C
:101C2000F2E70D70F0E719F8041B8DF800100020A2
:101C30008DF80100EA46012003E059F804AB4FF0AB
:101C4000FF3061074FF0000102D40DE008F10101FF
:101C50008846B9420FDA8045F8DB1AF808100029E7
:101C6000F4D108E008F1010188468142FADB1AF854
:101C700008100029F6D105985B46A0EB080721461D
:101C80003846179A00F094FA284400EB080507E05C
:101C90004DE029E10DE01AF8010B5A4617999047DB
:101CA000B8F10108F7D25B4621463846179A13E18E
:101CB00042E00A220092C4F302524FF0000A022AC4
:101CC00008D059F804CB032A4FEAEC710AD00DE092
:101CD00029E02AE009F1070121F00702F2E802C138
:101CE000914609E00FFA8CFC4FEAEC71042A03D10B
:101CF0004FFA8CFC4FEAEC71002907DA0A46002102
:101D0000DCF1000C61EB02012D2202E0220504D57A
:101D10002B228DF80420012203E0E20701D02022CB
:101D2000F7E7904659E00A2102E010220DE0102169
:101D30004FF0000A00910BE010224FF0000A44F02F
:101D400004040827009203E008224FF0000A0092E2
:101D5000C4F30252022A05D059F804CB0021032A09
:101D600008D009E009F1070121F00702F2E802C1F9
:101D7000914605E01FFA8CFC042A01D10CF0FF0CFF
:101D80004FF00008220728D5702806D0009B83F06A
:101D9000100353EA0A0305D00EE040228DF8042018
:101DA000012208E05CEA010206D030228DF804200E
:101DB0008DF8050002229046009B83F0080353EA49
:101DC0000A030AD15CEA010201D1620705D530227B
:101DD0008DF804204FF001087F1E582804D034A04D
:101DE00003900EA802900DE036A0F9E75346604636
:101DF000009AFEF7ADF984460398825C0298401E73
:101E0000029002705CEA0100F0D1029806A9081A5B
:101E100000F1200A600702D524F4803400E0012795
:101E2000574502DDA7EB0A0000E0002000EB0A01A5
:101E3000009005984144401A0590E00306D45B46A3
:101E40002146179A059800F0B3F90544002706E0EB
:101E500001A85A46C05D179990476D1C7F1C4745E5
:101E6000F6DBE0030CD55B462146179A059800F097
:101E70009FF9054404E030205A46179990476D1C9D
:101E80000099481E00900029F5DC08E002980299AC
:101E90005A460078491C0291179990476D1CBAF177
:101EA0000001AAF1010AF1DC65E100000928010046
:101EB00030313233343536373839616263646566C0
:101EC0000000000030313233343536373839414282
:101ED000434445460000000000F058F90544761CD4
:101EE000307800287FF4ECAD19B02846BDE8F08FBB
:101EF000620700D4062709F1070222F0070CFCE86C
:101F00000223E14603F000485FEA080C02D00FF21A
:101F1000702C0DE05FEA045C02D50FF2682C07E03C
:101F20005FEAC47C02D00FF2602C01E0AFF2700CCB
:101F30004FF0FF3823F00043CDF850C065280CD097
:101F400006DC452809D046281DD047283DD13DE074
:101F5000662818D067287ED138E00021112F01DBD8
:101F6000112000E0781CCDE9000106A90EA8FFF7BA
:101F7000DDFCDDE90F010E9A03910021009207F1CB
:101F8000010A04914DE04FF000400097CDE90110A7
:101F900006A90EA8FFF7CAFCDDE90F0203920E9B0B
:101FA00011990022DDF80CA00093049211B9791C5C
:101FB00000EB010AB7EB0A0004D4C0F1FF3007F1CF
:101FC000010A0490AAEB0700019044E0012F00DA17
:101FD00001270021112F01DD112000E03846CDE955
:101FE000000106A90EA8FFF7A1FCDDE90F010E9A7A
:101FF0000391002104910092BA4621070CD4039961
:10200000514500DA8A46BAF1010F05DD009AAAF1BE
:102010000101515C302908D0B84202DA10F1040FF6
:1020200006DA0121CDE9011015E0AAF10101E9E785
:10203000002805DC049901440491AAEB000102E0A8
:10204000411C514500DD8A460499401A401C01900C
:102050004FF000400290200704D40198504501DB66
:10206000CDF8048000208DF84F0002980DF14F0745
:10207000B0F1004F25D02B200E9002984FF00208AF
:1020800000280CDA404202902D200E9007E00A2131
:102090000298FEF747F83031029007F8011DB8F1B9
:1020A0000001A8F10108F2DC02980028EFD1791EA6
:1020B0000E980870307800F0200040F0450007F8D6
:1020C000020D12A8C01B00F107081498007800B197
:1020D000012000EB0A01019801EBE07105984144F1
:1020E000401A401E0590E00306D45B462146179A2D
:1020F000059800F05DF805441498007818B15A4628
:10210000179990476D1CE00324D55B462146179A2A
:10211000059800F04DF805441CE00498002807DB02
:10212000DDE90301884203DD0098405C179901E076
:10213000179930205A469047049805F10105401C34
:1021400004900198401E019004D12E205A46179900
:1021500090476D1CBAF10001AAF1010ADDDC05E02F
:1021600017F8010B5A46179990476D1CB8F10001FA
:10217000A8F10108F4DC5B462146179A0598ABE606
:102180002D0000002B000000200000002DE9F04190
:10219000044600251E461746880404D405E0394647
:1021A0002020B0476D1C641EF9D52846BDE8F0819B
:1021B0002DE9F041044600251E469046C80301D58E
:1021C000302700E02027880404D505E04146384642
:1021D000B0476D1C641EF9D52846BDE8F0810A6839
:1021E000531C0B6010707047010A0000102700009C
:1021F0000101000101010101020A00008813000031
:102200000202020202020202200A00006400000030
:102210000C030003060306036008000010270000FB
:1022200004030404040404042009000088130000CB
:102230000505050505050505200A000064000000E8
:102240000C03000006060006200600001027000010
:102250000707070706070707200A0000E803000032
:10226000080808080808080820020000E803000021
:102270000909090909090909200A0000E803000001
:102280000A0A0A0A0A0A0A0A20020000E8030000F1
:102290000B0B0B0B0B0B0B0B200A00006400000058
:1022A0000C03000006030000200A00006400000088
:1022B0000C030000060300003030003025640000ED
:1022C000E022000800000020200000000C19000897
:1022D0000023000820000020200400001C19000832
:1022E0000000040008000C001000140018001C007E
:1022F0000000040008000C001000140018001C006E
:04000005080000ED02
:00000001FF
